{
  "abi": [
    {
      "inputs": [
        {
          "internalType": "string",
          "name": "name",
          "type": "string"
        }
      ],
      "payable": false,
      "stateMutability": "nonpayable",
      "type": "constructor"
    },
    {
      "constant": true,
      "inputs": [],
      "name": "Name",
      "outputs": [
        {
          "internalType": "string",
          "name": "",
          "type": "string"
        }
      ],
      "payable": false,
      "stateMutability": "view",
      "type": "function"
    }
  ],
  "bytecode": {
    "object": "0x608060405234801561001057600080fd5b506040516103173803806103178339818101604052602081101561003357600080fd5b810190808051604051939291908464010000000082111561005357600080fd5b90830190602082018581111561006857600080fd5b825164010000000081118282018810171561008257600080fd5b82525081516020918201929091019080838360005b838110156100af578181015183820152602001610097565b50505050905090810190601f1680156100dc5780820380516001836020036101000a031916815260200191505b50604052505081516100f6915060009060208401906100fd565b5050610198565b828054600181600116156101000203166002900490600052602060002090601f016020900481019282601f1061013e57805160ff191683800117855561016b565b8280016001018555821561016b579182015b8281111561016b578251825591602001919060010190610150565b5061017792915061017b565b5090565b61019591905b808211156101775760008155600101610181565b90565b610170806101a76000396000f3fe608060405234801561001057600080fd5b506004361061002b5760003560e01c80638052474d14610030575b600080fd5b6100386100ad565b6040805160208082528351818301528351919283929083019185019080838360005b8381101561007257818101518382015260200161005a565b50505050905090810190601f16801561009f5780820380516001836020036101000a031916815260200191505b509250505060405180910390f35b6000805460408051602060026001851615610100026000190190941693909304601f810184900484028201840190925281815292918301828280156101335780601f1061010857610100808354040283529160200191610133565b820191906000526020600020905b81548152906001019060200180831161011657829003601f168201915b50505050508156fea265627a7a723158207275523c1f9f6e60838f92b91c34fbc5c2f7cd5be635772853f0a96815d29bec64736f6c63430005110032",
    "linkReferences": {}
  },
  "methodIdentifiers": {
    "Name()": "8052474d"
  },
  "id": 0
}